{
  "abi": [
    {
      "inputs": [],
      "name": "count",
      "outputs": [
        {
          "internalType": "uint256",
          "name": "",
          "type": "uint256"
        }
      ],
      "stateMutability": "view",
      "type": "function"
    },
    {
      "inputs": [],
      "name": "incrementCount",
      "outputs": [],
      "stateMutability": "nonpayable",
      "type": "function"
    },
    {
      "inputs": [
        {
          "internalType": "uint256",
          "name": "_count",
          "type": "uint256"
        }
      ],
      "name": "setCount",
      "outputs": [],
      "stateMutability": "nonpayable",
      "type": "function"
    },
    {
      "inputs": [
        {
          "internalType": "uint256",
          "name": "_valueA",
          "type": "uint256"
        },
        {
          "internalType": "uint256",
          "name": "_valueB",
          "type": "uint256"
        }
      ],
      "name": "takeTwoVariables",
      "outputs": [],
      "stateMutability": "payable",
      "type": "function"
    }
  ],
  "bytecode": "608060405234801561001057600080fd5b506101b6806100206000396000f3fe60806040526004361061003f5760003560e01c806306661abd1461004457806342fe9da91461006c578063d14e62b814610081578063e5071b8e146100a1575b600080fd5b34801561005057600080fd5b5061005a60005481565b60405190815260200160405180910390f35b61007f61007a3660046100fc565b6100b6565b005b34801561008d57600080fd5b5061007f61009c36600461011e565b6100d4565b3480156100ad57600080fd5b5061007f6100e6565b600034116100c357600080fd5b6100cd818361014d565b6000555050565b600081116100e157600080fd5b600055565b6000805490806100f583610165565b9190505550565b6000806040838503121561010f57600080fd5b50508035926020909101359150565b60006020828403121561013057600080fd5b5035919050565b634e487b7160e01b600052601160045260246000fd5b6000821982111561016057610160610137565b500190565b600060001982141561017957610179610137565b506001019056fea26469706673582212200258a6d0e2957763b1200c9104066127e593a91101f30697a45b8d54992ca28764736f6c63430008090033",
  "bytecodeSha1": "7af9302fbfeec20d4600e856a51bdfc39091a62a",
  "compiler": {
    "evm_version": "istanbul",
    "optimizer": {
      "enabled": true,
      "runs": 200
    },
    "version": "0.8.9+commit.e5eed63a"
  },
  "contractName": "Count",
  "language": "Solidity",
  "natspec": {
    "kind": "dev",
    "methods": {},
    "version": 1
  },
  "opcodes": "PUSH1 0x80 PUSH1 0x40 MSTORE PUSH1 0x4 CALLDATASIZE LT PUSH2 0x3F JUMPI PUSH1 0x0 CALLDATALOAD PUSH1 0xE0 SHR DUP1 PUSH4 0x6661ABD EQ PUSH2 0x44 JUMPI DUP1 PUSH4 0x42FE9DA9 EQ PUSH2 0x6C JUMPI DUP1 PUSH4 0xD14E62B8 EQ PUSH2 0x81 JUMPI DUP1 PUSH4 0xE5071B8E EQ PUSH2 0xA1 JUMPI JUMPDEST PUSH1 0x0 DUP1 REVERT JUMPDEST CALLVALUE DUP1 ISZERO PUSH2 0x50 JUMPI PUSH1 0x0 DUP1 REVERT JUMPDEST POP PUSH2 0x5A PUSH1 0x0 SLOAD DUP2 JUMP JUMPDEST PUSH1 0x40 MLOAD SWAP1 DUP2 MSTORE PUSH1 0x20 ADD PUSH1 0x40 MLOAD DUP1 SWAP2 SUB SWAP1 RETURN JUMPDEST PUSH2 0x7F PUSH2 0x7A CALLDATASIZE PUSH1 0x4 PUSH2 0xFC JUMP JUMPDEST PUSH2 0xB6 JUMP JUMPDEST STOP JUMPDEST CALLVALUE DUP1 ISZERO PUSH2 0x8D JUMPI PUSH1 0x0 DUP1 REVERT JUMPDEST POP PUSH2 0x7F PUSH2 0x9C CALLDATASIZE PUSH1 0x4 PUSH2 0x11E JUMP JUMPDEST PUSH2 0xD4 JUMP JUMPDEST CALLVALUE DUP1 ISZERO PUSH2 0xAD JUMPI PUSH1 0x0 DUP1 REVERT JUMPDEST POP PUSH2 0x7F PUSH2 0xE6 JUMP JUMPDEST PUSH1 0x0 CALLVALUE GT PUSH2 0xC3 JUMPI PUSH1 0x0 DUP1 REVERT JUMPDEST PUSH2 0xCD DUP2 DUP4 PUSH2 0x14D JUMP JUMPDEST PUSH1 0x0 SSTORE POP POP JUMP JUMPDEST PUSH1 0x0 DUP2 GT PUSH2 0xE1 JUMPI PUSH1 0x0 DUP1 REVERT JUMPDEST PUSH1 0x0 SSTORE JUMP JUMPDEST PUSH1 0x0 DUP1 SLOAD SWAP1 DUP1 PUSH2 0xF5 DUP4 PUSH2 0x165 JUMP JUMPDEST SWAP2 SWAP1 POP SSTORE POP JUMP JUMPDEST PUSH1 0x0 DUP1 PUSH1 0x40 DUP4 DUP6 SUB SLT ISZERO PUSH2 0x10F JUMPI PUSH1 0x0 DUP1 REVERT JUMPDEST POP POP DUP1 CALLDATALOAD SWAP3 PUSH1 0x20 SWAP1 SWAP2 ADD CALLDATALOAD SWAP2 POP JUMP JUMPDEST PUSH1 0x0 PUSH1 0x20 DUP3 DUP5 SUB SLT ISZERO PUSH2 0x130 JUMPI PUSH1 0x0 DUP1 REVERT JUMPDEST POP CALLDATALOAD SWAP2 SWAP1 POP JUMP JUMPDEST PUSH4 0x4E487B71 PUSH1 0xE0 SHL PUSH1 0x0 MSTORE PUSH1 0x11 PUSH1 0x4 MSTORE PUSH1 0x24 PUSH1 0x0 REVERT JUMPDEST PUSH1 0x0 DUP3 NOT DUP3 GT ISZERO PUSH2 0x160 JUMPI PUSH2 0x160 PUSH2 0x137 JUMP JUMPDEST POP ADD SWAP1 JUMP JUMPDEST PUSH1 0x0 PUSH1 0x0 NOT DUP3 EQ ISZERO PUSH2 0x179 JUMPI PUSH2 0x179 PUSH2 0x137 JUMP JUMPDEST POP PUSH1 0x1 ADD SWAP1 JUMP INVALID LOG2 PUSH5 0x6970667358 0x22 SLT KECCAK256 MUL PC 0xA6 0xD0 0xE2 SWAP6 PUSH24 0x63B1200C9104066127E593A91101F30697A45B8D54992CA2 DUP8 PUSH5 0x736F6C6343 STOP ADDMOD MULMOD STOP CALLER ",
  "sha1": "def2e48b04e34ff8e226a13a5a7ccd6c4856990b",
  "source": "// SPDX-License-Identifier: MIT\npragma solidity ^0.8.4;\n\n\ncontract Count {\n    uint256 public count;\n\n    function incrementCount() public {\n        count++;\n    }\n\n    function setCount(uint256 _count) public {\n        require(_count > 0);\n        count = _count;\n    }\n\n        function takeTwoVariables(uint _valueA, uint256 _valueB) public payable {\n        require(msg.value > 0);\n        count = _valueA + _valueB;\n    }\n\n\n}",
  "sourcePath": "contracts/Count.sol",
  "type": "contract"
}